{
  "contractName": "Election",
  "abi": [
    {
      "constant": true,
      "inputs": [],
      "name": "candidatesCount",
      "outputs": [
        {
          "name": "",
          "type": "uint8"
        }
      ],
      "payable": false,
      "stateMutability": "view",
      "type": "function",
      "signature": "0x2d35a8a2"
    },
    {
      "constant": true,
      "inputs": [
        {
          "name": "",
          "type": "uint8"
        }
      ],
      "name": "candidates",
      "outputs": [
        {
          "name": "id",
          "type": "uint8"
        },
        {
          "name": "name",
          "type": "string"
        },
        {
          "name": "count",
          "type": "uint8"
        }
      ],
      "payable": false,
      "stateMutability": "view",
      "type": "function",
      "signature": "0x6d6277f4"
    },
    {
      "inputs": [],
      "payable": false,
      "stateMutability": "nonpayable",
      "type": "constructor",
      "signature": "constructor"
    }
  ],
  "bytecode": "0x608060405234801561001057600080fd5b5061005e6040805190810160405280600b81526020017f43616e64696461746520310000000000000000000000000000000000000000008152506100b0640100000000026401000000009004565b6100ab6040805190810160405280600b81526020017f43616e64696461746520320000000000000000000000000000000000000000008152506100b0640100000000026401000000009004565b610245565b6001600081819054906101000a900460ff168092919060010191906101000a81548160ff021916908360ff16021790555050606060405190810160405280600160009054906101000a900460ff1660ff168152602001828152602001600060ff16815250600080600160009054906101000a900460ff1660ff1660ff16815260200190815260200160002060008201518160000160006101000a81548160ff021916908360ff16021790555060208201518160010190805190602001906101789291906101a0565b5060408201518160020160006101000a81548160ff021916908360ff16021790555090505050565b828054600181600116156101000203166002900490600052602060002090601f016020900481019282601f106101e157805160ff191683800117855561020f565b8280016001018555821561020f579182015b8281111561020e5782518255916020019190600101906101f3565b5b50905061021c9190610220565b5090565b61024291905b8082111561023e576000816000905550600101610226565b5090565b90565b61026e806102546000396000f3fe60806040526004361061004c576000357c0100000000000000000000000000000000000000000000000000000000900463ffffffff1680632d35a8a2146100515780636d6277f414610082575b600080fd5b34801561005d57600080fd5b50610066610153565b604051808260ff1660ff16815260200191505060405180910390f35b34801561008e57600080fd5b506100be600480360360208110156100a557600080fd5b81019080803560ff169060200190929190505050610166565b604051808460ff1660ff168152602001806020018360ff1660ff168152602001828103825284818151815260200191508051906020019080838360005b838110156101165780820151818401526020810190506100fb565b50505050905090810190601f1680156101435780820380516001836020036101000a031916815260200191505b5094505050505060405180910390f35b600160009054906101000a900460ff1681565b60006020528060005260406000206000915090508060000160009054906101000a900460ff1690806001018054600181600116156101000203166002900480601f0160208091040260200160405190810160405280929190818152602001828054600181600116156101000203166002900480156102255780601f106101fa57610100808354040283529160200191610225565b820191906000526020600020905b81548152906001019060200180831161020857829003601f168201915b5050505050908060020160009054906101000a900460ff1690508356fea165627a7a723058205e76595541955ab4f9d62b10a3362a9ca24129b25687d0b301e1ed42b1ff4cb20029",
  "source": "pragma solidity ^0.5.0;\n\ncontract Election {\n  // Model Candidate\n  struct Candidate {\n    uint8 id;\n    string name;\n    uint8 count;\n  }\n  // Store Candidates\n  // Fetch Candidates\n  mapping(uint8 => Candidate) public candidates;\n  // Store Candidates Count\n  uint8 public candidatesCount;\n\n  constructor () public {\n    addCandidate(\"Candidate 1\");\n    addCandidate(\"Candidate 2\");\n  }\n\n  function addCandidate (string memory _name) private {\n    candidatesCount ++;\n    candidates[candidatesCount] = Candidate(candidatesCount, _name, 0);\n  }\n}\n",
  "sourcePath": "/Users/yvtcngl/Desktop/Projects/election/contracts/Election.sol",
  "compiler": {
    "name": "solc",
    "version": "0.5.0+commit.1d4f565a.Emscripten.clang"
  },
  "schemaVersion": "3.0.0",
  "updatedAt": "2018-12-24T03:22:36.474Z",
  "devdoc": {
    "methods": {}
  },
  "userdoc": {
    "methods": {}
  }
}