{
  "contractName": "Election",
  "abi": [
    {
      "constant": true,
      "inputs": [],
      "name": "candidatesCount",
      "outputs": [
        {
          "name": "",
          "type": "uint8"
        }
      ],
      "payable": false,
      "stateMutability": "view",
      "type": "function",
      "signature": "0x2d35a8a2"
    },
    {
      "constant": true,
      "inputs": [
        {
          "name": "",
          "type": "uint8"
        }
      ],
      "name": "candidates",
      "outputs": [
        {
          "name": "id",
          "type": "uint8"
        },
        {
          "name": "name",
          "type": "string"
        },
        {
          "name": "count",
          "type": "uint8"
        }
      ],
      "payable": false,
      "stateMutability": "view",
      "type": "function",
      "signature": "0x6d6277f4"
    },
    {
      "constant": true,
      "inputs": [
        {
          "name": "",
          "type": "address"
        }
      ],
      "name": "voters",
      "outputs": [
        {
          "name": "",
          "type": "bool"
        }
      ],
      "payable": false,
      "stateMutability": "view",
      "type": "function",
      "signature": "0xa3ec138d"
    },
    {
      "inputs": [],
      "payable": false,
      "stateMutability": "nonpayable",
      "type": "constructor",
      "signature": "constructor"
    },
    {
      "anonymous": false,
      "inputs": [
        {
          "indexed": true,
          "name": "_candidateId",
          "type": "uint8"
        }
      ],
      "name": "votedEvent",
      "type": "event",
      "signature": "0x299531cb58f85d08a44ed9485a55a7326c4383ec19cddcff4ff126cf2779600e"
    },
    {
      "constant": false,
      "inputs": [
        {
          "name": "_candidateId",
          "type": "uint8"
        }
      ],
      "name": "vote",
      "outputs": [],
      "payable": false,
      "stateMutability": "nonpayable",
      "type": "function",
      "signature": "0xb3f98adc"
    }
  ],
  "bytecode": "0x608060405234801561001057600080fd5b5061005e6040805190810160405280600781526020017f53686162692031000000000000000000000000000000000000000000000000008152506100b0640100000000026401000000009004565b6100ab6040805190810160405280600781526020017f53686162692032000000000000000000000000000000000000000000000000008152506100b0640100000000026401000000009004565b610246565b6002600081819054906101000a900460ff168092919060010191906101000a81548160ff021916908360ff16021790555050606060405190810160405280600260009054906101000a900460ff1660ff168152602001828152602001600060ff1681525060016000600260009054906101000a900460ff1660ff1660ff16815260200190815260200160002060008201518160000160006101000a81548160ff021916908360ff16021790555060208201518160010190805190602001906101799291906101a1565b5060408201518160020160006101000a81548160ff021916908360ff16021790555090505050565b828054600181600116156101000203166002900490600052602060002090601f016020900481019282601f106101e257805160ff1916838001178555610210565b82800160010185558215610210579182015b8281111561020f5782518255916020019190600101906101f4565b5b50905061021d9190610221565b5090565b61024391905b8082111561023f576000816000905550600101610227565b5090565b90565b61057e806102556000396000f3fe608060405260043610610062576000357c0100000000000000000000000000000000000000000000000000000000900463ffffffff1680632d35a8a2146100675780636d6277f414610098578063a3ec138d14610169578063b3f98adc146101d2575b600080fd5b34801561007357600080fd5b5061007c610210565b604051808260ff1660ff16815260200191505060405180910390f35b3480156100a457600080fd5b506100d4600480360360208110156100bb57600080fd5b81019080803560ff169060200190929190505050610223565b604051808460ff1660ff168152602001806020018360ff1660ff168152602001828103825284818151815260200191508051906020019080838360005b8381101561012c578082015181840152602081019050610111565b50505050905090810190601f1680156101595780820380516001836020036101000a031916815260200191505b5094505050505060405180910390f35b34801561017557600080fd5b506101b86004803603602081101561018c57600080fd5b81019080803573ffffffffffffffffffffffffffffffffffffffff1690602001909291905050506102ff565b604051808215151515815260200191505060405180910390f35b3480156101de57600080fd5b5061020e600480360360208110156101f557600080fd5b81019080803560ff16906020019092919050505061031f565b005b600260009054906101000a900460ff1681565b60016020528060005260406000206000915090508060000160009054906101000a900460ff1690806001018054600181600116156101000203166002900480601f0160208091040260200160405190810160405280929190818152602001828054600181600116156101000203166002900480156102e25780601f106102b7576101008083540402835291602001916102e2565b820191906000526020600020905b8154815290600101906020018083116102c557829003601f168201915b5050505050908060020160009054906101000a900460ff16905083565b60006020528060005260406000206000915054906101000a900460ff1681565b6000803373ffffffffffffffffffffffffffffffffffffffff1673ffffffffffffffffffffffffffffffffffffffff16815260200190815260200160002060009054906101000a900460ff161515156103e0576040517f08c379a00000000000000000000000000000000000000000000000000000000081526004018080602001828103825260058152602001807f4572726f7200000000000000000000000000000000000000000000000000000081525060200191505060405180910390fd5b60008160ff161180156104085750600260009054906101000a900460ff1660ff168160ff1611155b151561047c576040517f08c379a00000000000000000000000000000000000000000000000000000000081526004018080602001828103825260058152602001807f4572726f7200000000000000000000000000000000000000000000000000000081525060200191505060405180910390fd5b60016000803373ffffffffffffffffffffffffffffffffffffffff1673ffffffffffffffffffffffffffffffffffffffff16815260200190815260200160002060006101000a81548160ff021916908315150217905550600160008260ff1660ff168152602001908152602001600020600201600081819054906101000a900460ff168092919060010191906101000a81548160ff021916908360ff160217905550508060ff167f299531cb58f85d08a44ed9485a55a7326c4383ec19cddcff4ff126cf2779600e60405160405180910390a25056fea165627a7a7230582017831300e329c3522dfc51ece33c3651cb8883cda9cfa5216a1ed667f8f546920029",
  "source": "pragma solidity ^0.5.0;\n\ncontract Election {\n  // Model Candidate\n    struct Candidate {\n        uint8 id;\n        string name;\n        uint8 count;\n    }\n    // Store accounts that voted\n    mapping(address => bool) public voters;\n    // Store Candidates\n    // Fetch Candidates\n    mapping(uint8 => Candidate) public candidates;\n    // Store Candidates Count\n    uint8 public candidatesCount;\n\n    // voted event\n    event votedEvent (\n      uint8 indexed _candidateId\n    );\n\n    constructor () public {\n        addCandidate(\"Shabi 1\");\n        addCandidate(\"Shabi 2\");\n    }\n\n    function addCandidate (string memory _name) private {\n        candidatesCount ++;\n        candidates[candidatesCount] = Candidate(candidatesCount, _name, 0);\n    }\n\n    function vote (uint8 _candidateId) public {\n        // Check if the voter has already voted\n        require(!voters[msg.sender], \"Error\");\n        // Check if the vote is towards a valid candidate\n        require(_candidateId > 0 && _candidateId <= candidatesCount, \"Error\");\n        // Record that the voter has voted\n        voters[msg.sender] = true;\n        // Update vote\n        candidates[_candidateId].count ++;\n        // Trigger voted event\n        emit votedEvent(_candidateId);\n    }\n}\n",
  "sourcePath": "/Users/yvtcngl/Desktop/Projects/election/contracts/Election.sol",
  "compiler": {
    "name": "solc",
    "version": "0.5.0+commit.1d4f565a.Emscripten.clang"
  },
  "schemaVersion": "3.0.0",
  "updatedAt": "2019-02-12T21:18:22.756Z",
  "devdoc": {
    "methods": {}
  },
  "userdoc": {
    "methods": {}
  }
}